:100000000C944A010C946B010C946B010C946B01E1
:100010000C946B010C946B010C946B010C946B01B0
:100020000C946B010C946B010C946B010C946B01A0
:100030000C946B010C946B010C946B010C946B0190
:100040000C946B010C946B010C946B010C946B0180
:100050000C946B010C946B010C946B010C946B0170
:100060000C946B010C9403220C94CC210C946B0126
:100070000C946B010C946B010C946B010C946B0150
:100080000C946B010C946B010C946B010C946B0140
:100090000C946B010C946B010C946B010C946B0130
:1000A0000C946B010C946B010C946B010C946B0120
:1000B0000C946B010C946B010C946B010C946B0110
:1000C0000C946B010C946B010C946B010C946B0100
:1000D0000C946B010C946B010C946B010C946B01F0
:1000E0000C946B010C946B010C9437220C949521A9
:1000F0000C946B010C946B010C946B010C946B01D0
:100100000C943B050C946B010C946B010C946B01EB
:100110000C946B010C946B010C946B010C946B01AF
:100120000C946B010C946B010C946B010C946B019F
:100130000C946B010C946B010C946B010C946B018F
:100140000C946B010C946B010C946B010C946B017F
:100150000C946B010C946B010C946B010C946B016F
:100160000C946B010C946B010C946B010C946B015F
:100170000C946B010C946B010C946B010C946B014F
:100180000C946B010C946B010C946B010C946B013F
:100190000C946B010C946B010C946B010C946B012F
:1001A0000C946B010C946B010C946B010C946B011F
:1001B0000C946B010C946B010C946B010C946B010F
:1001C0000C946B010C946B010C946B010C946B01FF
:1001D0000C946B010C946B010C946B010C946B01EF
:1001E0000C946B010C946B010C946B010C946B01DF
:1001F0000C946B010C946B010C946B01311A18195F
:100200002F192919291929192919291929192919D8
:10021000291929192919461A291929192919C11819
:1002200029192F19291929190A1AB31C261B151C5B
:10023000C81BE51B051C1C1C6C1B831B7F1CCE1CD8
:100240009A1BB11B0C94311A0C946C1B0C94461A1B
:100250000C94E51B0C94B11B0C94051C0C94831B93
:100260000C94C81B0C949A1B0C94261B0C942919F3
:100270000C94151C0C941C1C0C940A1A0C947F1CD6
:100280000C9418190C942F190C94CE1C0C94B31CBC
:100290000C94C11811241FBECFEFCDBFDFE5DEBF28
:1002A00000E00CBF10E2A0E0B0E2E8ECF7E400E010
:1002B0000BBF02C007900D92AC3DB107D9F725E402
:1002C000ACEDB0E201C01D92AF3FB207E1F70E9472
:1002D000611A0C94E2230C940000E0E6F6E080E260
:1002E000868790E49283818390E8918320E1218343
:1002F0008683968381E0828384E081838683E0EC39
:10030000F9E086E58083118281E480932143109295
:1003100041431092174308958093C309E0ECF9E03C
:1003200082818823ECF78091C30908951F93CF93AE
:10033000DF93C0E6D6E010E11E8385E18A95F1F7F0
:10034000000082E00E948C0185E38A95F1F70000AD
:100350001D8385E38A95F1F70000DF91CF911F910E
:1003600008951F93CF93DF93C0E6D6E010E11E837C
:1003700085E38A95F1F7000084E00E948C0185E313
:100380008A95F1F700001D83DF91CF911F910895A9
:100390001F93CF93DF93C0E6D6E010E11E8325E3E1
:1003A0002A95F1F7000086E00E948C018FEF93EF11
:1003B00021E0815090402040E1F700C000001D8303
:1003C000DF91CF911F9108951F93CF93DF93C0E6E4
:1003D000D6E010E11E8385E38A95F1F7000088E0FE
:1003E0000E948C0185E38A95F1F700001D83DF915F
:1003F000CF911F9108951F93CF93DF93C0E6D6E06E
:1004000010E11E8385E38A95F1F700008AE00E94DF
:100410008C0185E38A95F1F700001D83DF91CF9170
:100420001F9108951F93CF93DF93C0E6D6E010E1AC
:100430001E8385E38A95F1F7000080E10E948C011C
:1004400085E38A95F1F700001D83DF91CF911F911D
:1004500008950F931F93CF93DF93C0E6D6E010E18A
:100460001E8385E38A95F1F7000081E10E948C01EB
:1004700085E18A95F1F7000080E20E948C0185E118
:100480008A95F1F7000080E00E948C0185E18A9551
:10049000F1F7000080E00E948C01082F85E18A9529
:1004A000F1F7000080E10E948C0185E38A95F1F765
:1004B00000001D83802FDF91CF911F910F91089530
:1004C000FF920F931F93CF93DF93C82FF62E00E672
:1004D00016E0D0E1F801D68387EC90E00197F1F7C0
:1004E00000C0000081E10E948C018C2F8F71805C24
:1004F0000E948C0180E00E948C018F2D0E948C0153
:1005000080E10E948C019FEFE9EFF0E09150E04024
:10051000F040E1F700C00000F801D583DF91CF91F2
:100520001F910F91FF9008950F931F93CF93DF9327
:1005300080911743882309F469C060913B4370910F
:100540003C4380913D4390913E4320E030E040E8C1
:100550005FE30E946C2260933B4370933C43809323
:100560003D4390933E4380E180936606CFE9D5E416
:100570000AEB15E480E00E948C018993C017D10733
:10058000C9F7809147438093BA458FE995E40E946B
:100590004103811116C060919B4570919C458091EB
:1005A0009D4590919E4520E030E040E85FE30E9449
:1005B0006C2260939B4570939C4580939D459093DE
:1005C0009E458FE995E40E940B03811116C060914E
:1005D0006B4570916C4580916D4590916E4520E022
:1005E00030E040E85FE30E946C2260936B457093BB
:1005F0006C4580936D4590936E4585E38A95F1F740
:10060000000080E18093650610921743DF91CF913F
:100610001F910F910895CF93DF93482FC091DF452D
:10062000D091E0452196CF73DD272091844530910C
:10063000854581E0C217D30709F480E0C217D307CC
:10064000E9F0A42FB92F20E030E06CE14091DF45C4
:100650005091E0459D91649FF001659FF00D11243C
:10066000EE51FF4DE20FF31F90832F5F3F4F2C3170
:10067000310561F7C093DF45D093E045DF91CF911D
:1006800008957F928F929F92AF92BF92CF92DF9206
:10069000EF92FF920F931F93CF93DF93E090394334
:1006A000F0903A432FEFE21AF20A4FE3E422FF24DC
:1006B000209137433091384377247394E216F30640
:1006C00009F4712CE216F30609F4AAC06C01EC01DE
:1006D0008C01055E1F4FA12CB12C0F2EF4E69F2E2E
:1006E000F02D0F2EFCE28F2EF02D28816981862FB0
:1006F00090E0A0E0B0E0BA2FA92F982F8827A22B76
:100700002A81BC01CD01622B60932643709327435D
:1007100080932843909329432AE04AE253E40E94BD
:10072000A12380912A43811165C0C50118C0609141
:10073000394370913A43969E9001979E300D112453
:100740002D51384DD901A40FB51FBC924F5F5F4F9B
:100750004817590721F0B190B110E9CFCA01209193
:10076000394330913A435C01EFEFAE1ABE0A929ED4
:10077000F001939EF00D1124ED51F84DE80FF91F93
:1007800080822396C017D10709F0AFCF409139433B
:1007900050913A43F601338D24E6249FF001259FC2
:1007A000F00D1124ED51F84DEA0DFB1D3083409101
:1007B000394350913A43249FF001259FF00D1124B5
:1007C000E80FF91FEB51F84D3DE03083409139437C
:1007D00050913A43249FF001259FF00D11248E0F74
:1007E0009F1FFC01EA51F84D1082E0923943F092CC
:1007F0003A4316C02091394330913A43929EF0011A
:10080000939EF00D1124ED51F84DEA0DFB1D8083F0
:10081000A5014F5F5F4FEBE2F3E4C5010A969BCF62
:10082000872DDF91CF911F910F91FF90EF90DF9077
:10083000CF90BF90AF909F908F907F900895CF936F
:100840002091DF453091E045809184459091854528
:100850002817390761F1CCE1209184453091854515
:10086000C29FC001C39F900D11246CE170E08E51B6
:100870009F4D0E947C218AE00E948D218DE00E9484
:100880008D21809184459091854501968F7399279C
:1008900080938445909385452091DF453091E045D4
:1008A000809184459091854528173907A9F6CF9105
:1008B0000895CF93DF93C82FD92F41E062E470E20F
:1008C00088EE90E40E940C13811119C042E365E2A6
:1008D00070E289E493E40E944E13811110C0DF930B
:1008E000CF9389E493E49F938F930E94061889E441
:1008F00093E40E94E7170F900F900F900F90DF91F5
:10090000CF91089541E062E470E288EE90E40E94A5
:100910000C1381111BC04AE065E270E289E493E4A4
:100920000E944E13811112C08EE290E29F938F932A
:1009300089E493E49F938F930E94061889E493E4DB
:100940000E94E7170F900F900F900F90089561E4A9
:1009500070E08FE695E40E9496238F56954429F423
:1009600010923F431092404358C062E470E08FE61B
:1009700095E40E9496238F56954439F481E090E0E7
:1009800080933F439093404348C063E470E08FE618
:1009900095E40E9496238F56954421F481E080933C
:1009A00048433BC064E470E08FE695E40E949623E0
:1009B0008F56954421F481E0809322432EC065E454
:1009C00070E08FE695E40E9496238F56954421F4BB
:1009D00081E08093E34021C066E470E08FE695E417
:1009E0000E9496238F56954421F481E080939A4586
:1009F00014C084E590E20E945E218AE00E94742186
:100A00008DE00E9474218FE695E40E945E218AE0C9
:100A10000E9474218DE00E94742184E1EFE6F5E4E8
:100A2000DF011D928A95E9F71092344308951092E0
:100A300023431092244381E08093620680936906E9
:100A400080936A06ECE6F6E08081817080838AE11B
:100A5000809370061092E4401092E5401092E640B8
:100A60001092E740089510926906ECE6F6E0808166
:100A70008170808308951F920F920FB60F921124F8
:100A80000BB60F922F933F934F935F936F937F9388
:100A90008F939F93AF93BF93EF93FF9381E08093E6
:100AA00017438091480680FF04C081E38093474349
:100AB00003C080E38093474360911D4370911E43C0
:100AC00080911F439091204320E030E040E85FE3B5
:100AD0000E946C2260931D4370931E4380931F43BA
:100AE000909320430E949402FF91EF91BF91AF91A8
:100AF0009F918F917F916F915F914F913F912F9136
:100B00000F900BBE0F900FBE0F901F901895FC0119
:100B10006381862F90E0A0E0B0E0BA2FA92F982F34
:100B200088272281822BBA2FA92F982F88272181ED
:100B3000822BBA2FA92F982F88272081BC01CD01A5
:100B4000622B08954115510551F0A62FB72FFC01D6
:100B5000480F591F9D919193E417F507D9F7089510
:100B6000FC01480F591F6193E417F507E1F7089559
:100B7000DC01E62FF72F8D91219190E0821B9109E6
:100B80004150510911F00097B1F308950F931F934D
:100B9000FC019A01AB0122503109410951098389B5
:100BA0009489A589B6890297A109B109281739073F
:100BB0004A075B0768F4A185B2850E948B2307A1D1
:100BC00010A521A532A5600F711F821F931F03C0BE
:100BD00060E070E0CB011F910F910895CF93DF93F8
:100BE000EC01A881B9811097F1F09D012F5F3F4F73
:100BF000F90131979081913218F09A33B9F702C018
:100C00009A33A1F48C9190ED980F9A3090F412964B
:100C10002A173B0789F490E0C097181619067CF054
:100C2000288339830EC08FEF9FEF0BC080E090E0E8
:100C300008C08FEF9FEF05C08FEF9FEF02C08FEFCF
:100C40009FEFDF91CF9108950F931F93CF93DF9381
:100C5000EC018B01892BE1F0E881F9813097C1F03B
:100C600080818823A9F02A813B818581968128177C
:100C7000390771F481810E94741E80FD09C004C08F
:100C8000F8012083318308C02881398180E0F8CFC2
:100C900089E020E030E0F4CFDF91CF911F910F91F8
:100CA00008958F929F92AF92BF92EF92FF920F930F
:100CB0001F93CF93DF93FC0123812223D1F1EC0119
:100CC0007C01FFE2EF0EF11C2BA53CA54DA55EA516
:100CD00001E010E0B70189810E949E1F81112BC0A5
:100CE0001B820BA51CA52DA53EA58F89988DA98DCE
:100CF000BA8D8F8C98A0A9A0BAA0B901A8014819F3
:100D000059096A097B09481759076A077B07A8F43C
:100D10006A816230A1F4A9019801280F391F4A1F86
:100D20005B1F01E010E0B70189810E949E1F80E0F7
:100D300007C080E005C081E003C080E001C080E022
:100D4000DF91CF911F910F91FF90EF90BF90AF90E7
:100D50009F908F9008958F929F92AF92BF92FF9233
:100D60000F931F93CF93DF93EC014A015B018BA597
:100D70009CA5ADA5BEA584179507A607B707E9F002
:100D8000CE010E945106F82E811118C001E010E03A
:100D9000A5019401BE01615D7F4F89810E944E1FB4
:100DA000882331F0FF24F39488248A94982C5401EA
:100DB0008BA69CA6ADA6BEA601C0F12C8F2DDF91FF
:100DC000CF911F910F91FF90BF90AF909F908F9008
:100DD00008958F929F92AF92BF92CF92DF92EF923F
:100DE000FF920F931F93CF93DF937C014A015B0126
:100DF0000E945106811141C0B501A401C7010E94A2
:100E0000C6054B015C01F70163A774A785A796A7E8
:100E10006701FFE2CF0ED11C40E052E060E070E0DD
:100E2000C6010E94B005F70181859285892B59F48E
:100E3000C0E0D0E019C02196F70181859285C817DE
:100E4000D90718F011C0C0E0D0E001E010E0A50122
:100E500094012C0F3D1F411D511DB601F7018181E9
:100E60000E949E1F882339F381E0F7012185328596
:100E70002C173D0719F480E001C081E0DF91CF918C
:100E80001F910F91FF90EF90DF90CF90BF90AF90A8
:100E90009F908F900895EF92FF920F931F93CF939F
:100EA000DF93EC010E945106982F811162C0888166
:100EB000833009F054C08C81813009F050C040E08B
:100EC00052E060E070E07E018FE2E80EF11CC701A5
:100ED0000E94B00585E5FE01E35DFD4F80838AEA4F
:100EE0003196808382E58FA788AB81E689AB91E458
:100EF0009AAB22E77B9720833196208331969083AB
:100F0000319680833F85288999898A8931963083F3
:100F10003196208331969083319680833B852C8552
:100F20009D858E85319630833196208331969083CE
:100F3000319680838B8D9C8DAD8DBE8D9C01AD01D6
:100F40002F5F3F4F4F4F5F4F2BA73CA74DA75EA78B
:100F500001E010E0B70189810E949E1F1C8240E0E1
:100F600050E060E089810E94072091E0811101C07A
:100F700090E0892FDF91CF911F910F91FF90EF901B
:100F800008952F923F924F925F926F927F928F922D
:100F90009F92AF92BF92CF92DF92EF92FF920F9308
:100FA0001F93CF93DF93423051056105710508F41B
:100FB000D2C0FC01C388D488E588F6884C155D054D
:100FC0006E057F0508F0C9C0280139016A017B015F
:100FD000EC018081823009F464C0833009F482C05E
:100FE000813009F0BCC05A01B694A794A40EB51E76
:100FF000C501892F99278695478D50A161A172A1BE
:10100000480F591F611D711DCF010E94AB06182F9B
:101010008111C5C01E01FFE22F0E311C45012FEFCB
:10102000821A920A31E0B322F101EA0DFB1DC0FEE3
:101030001EC08081282F2F7030E1439EC0011124F3
:10104000822B808381E08B834F8D58A169A17AA187
:10105000C401892F99278695480F591F611D711D5D
:10106000CE010E94AB06882309F47FC07AC040827B
:1010700081E08B834F8D58A169A17AA1C401892F8A
:1010800099278695480F591F611D711DCE010E9439
:10109000AB06882309F477C066C0408281E08B8369
:1010A0007EC0452F562F672F7727878D90A1A1A14E
:1010B000B2A1480F591F6A1F7B1FCF010E94AB06C8
:1010C000182F81116CC0FE01BF96CC0CDD1CE8947A
:1010D000C0F881E0D822EC0DFD1D4082518281E0F4
:1010E0008B835DC0878D90A1A1A1B2A1689416F8F1
:1010F00076956795579547951694D1F7480F591FE0
:101100006A1F7B1FCF010E94AB06182F811147C0B9
:10111000EFE07E22CE018F96CC0CDD1CCC0CDD1CCA
:10112000FCEFCF22F1E0DF22C80ED91EC6010E94DB
:101130008705DC01CB0188279927AA27B07F482A99
:10114000592A6A2A7B2AF60140825182628273827E
:1011500081E08B8324C012E022C012E020C012E0A4
:101160001EC0182F1CC0182F1AC0F1E09F22F101D9
:10117000E80DF91D689413F8769467945794479492
:101180001694D1F78ACF21E09222F101E80DF91DE2
:101190009081907F852D8F70492E482A7ECF812F98
:1011A000DF91CF911F910F91FF90EF90DF90CF9043
:1011B000BF90AF909F908F907F906F905F904F9077
:1011C0003F902F900895FB01228F338FDC018C918B
:1011D000833029F4CA01AA27BB27848B958B0895F5
:1011E000AF92BF92CF92DF92EF92FF920F931F9335
:1011F000CF93DF93423051056105710508F4A6C015
:10120000FC01C081D1818B899C89AD89BE89481739
:1012100059076A077B0708F09EC06A017B01888135
:10122000823009F44DC0833009F46CC0813009F07C
:1012300097C08A0116950795040F151FC801892FBD
:10124000992786954F8D58A169A17AA1480F591FFA
:10125000611D711DCE010E94AB06811186C058012F
:10126000FFEFAF1ABF0A1170FE01E00FF11F17A5C3
:10127000C501892F992786954F8D58A169A17AA11B
:10128000480F591F611D711DCE010E94AB068111CF
:1012900070C081E0B822CA0DDB1D8FA5612F70E000
:1012A000782BC0FE09C0729562956F7067277F70BA
:1012B000672780E090E068C07F7080E090E064C0C5
:1012C000452F562F672F77278F8D98A1A9A1BAA1F7
:1012D000480F591F6A1F7B1FCE010E94AB06811168
:1012E0004CC0AF96A601440F551F4E7F5170C40FDE
:1012F000D51F698170E0762F66278881682B80E092
:1013000090E042C08F8D98A1A9A1BAA1689416F867
:1013100076956795579547951694D1F7480F591FBD
:101320006A1F7B1FCE010E94AB0681112AC0AF96B7
:10133000A601440F551F440F551FCA018C7F9170A1
:101340008C0F9D1F0E9487059F701EC061E070E09A
:1013500080E090E019C061E070E080E090E014C0AF
:1013600061E070E080E090E00FC06FEF7FEFCB01B5
:101370000BC06FEF7FEFCB0107C06FEF7FEFCB01AB
:1013800003C06FEF7FEFCB01DF91CF911F910F91E2
:10139000FF90EF90DF90CF90BF90AF9008954F9265
:1013A0005F926F927F928F929F92AF92BF92CF92F5
:1013B000DF92EF92FF920F931F93CF93DF93EC0195
:1013C0006A017B014115510580E26807710508F04B
:1013D000B3C0DB01CA018F719927AA27BB27892BCC
:1013E0008A2B8B2B09F0AAC0088119814E875F8751
:1013F000688B798B8E809F80A884B9848114910436
:10140000A104B10461F5F8018081833040F083A12B
:1014100094A1A5A1B6A10097A105B105F1F4F80129
:1014200087819085A0E0B0E0B701A601689414F828
:1014300076956795579547951694D1F748175907AC
:101440006A077B0708F07CC083A194A1A5A1B6A17F
:101450008E8B9F8BA88FB98F46C04C015D01F80120
:1014600041845284612C712C032E39E0440C551CAC
:10147000661C771C3A95D1F7302DC414D504E604C8
:10148000F70440F1B501A401CE010E94F0084B0120
:101490005C016F3F7F4F8F4F9F4F09F453C082E035
:1014A00088169104A104B10408F44EC0F8018389A0
:1014B0009489A589B68988169906AA06BB0608F0FC
:1014C00045C0C418D508E608F708C414D504E604D6
:1014D000F704C0F6B501A401C8010E94C6056E8BD1
:1014E0007F8B888F998F8A8A9B8AAC8ABD8A8E89E6
:1014F0009F89A88DB98D0097A105B10549F1B70164
:10150000A601032E39E076956795579547953A954C
:10151000D1F7302D840F951FA61FB71F8E8B9F8B81
:10152000A88FB98F015D1F4FF1E0DF22C00ED11EE1
:10153000CA8EDB8E80E00DC082E00BC082E009C065
:1015400082E007C081E005C082E003C082E001C004
:1015500082E0DF91CF911F910F91FF90EF90DF908C
:10156000CF90BF90AF909F908F907F906F905F9043
:101570004F9008954F925F926F927F928F929F92B9
:10158000AF92BF92CF92DF92EF92FF920F931F9391
:10159000CF93DF938C012A013B01FC01C081D181F3
:1015A0004115510561057105C9F48B849C84AD8496
:1015B000BE8481149104A104B10409F422C18B8971
:1015C0009C89AD89BE8988169906AA06BB0608F4CF
:1015D0001CC1812C912C5401839417C10E94F008E6
:1015E000623071058105910508F4D3C06F3FFFEFAC
:1015F0007F078F079F0709F4D1C0CB88DC88ED886F
:10160000FE886C157D058E059F0508F0E9C007C1B1
:10161000730162012FEFC21AD20AE20AF20A8B8921
:101620009C89AD89BE89C816D906EA06FB0628F052
:10163000C12CD12C76016894C1F8B701A601C8016C
:101640000E94F008613071058105910509F4AAC076
:101650006F3FEFEF7E078E079E0709F4A8C0672B48
:10166000682B692BB1F08B849C84AD84BE84F2E03E
:101670008F169104A104B10408F4BDC08B899C8924
:10168000AD89BE8988169906AA06BB0608F0B6C0C1
:1016900007C0C114D104E104F104D1F553014201A2
:1016A000750164012FEFC21AD20AE20AF20A8B898D
:1016B0009C89AD89BE89C816D906EA06FB0660F08A
:1016C00082E088169104A104B10408F474C0C12C0E
:1016D000D12C76016894C1F8B701A601C8010E9417
:1016E000F008611571058105910591F06130710572
:1016F0008105910509F463C06F3F7F4F8F4F9F4F66
:1017000009F462C0C814D904EA04FB0459F660C0A5
:101710000FEF1FEF9801B701A601CE010E94C1078C
:10172000811130C0411451046104710449F09701E2
:101730008601B301A201CE010E94C107811122C01E
:10174000CB86DC86ED86FE864F85588969897A8945
:101750008B899C89AD89BE890297A109B10984173B
:101760009507A607B70740F0415051096109710973
:101770004F87588B698B7A8B8C8181608C83C701F2
:10178000B6014DC0813041F161E070E080E090E051
:1017900046C061E070E080E090E041C06FEF7FEF15
:1017A000CB013DC061E070E080E090E038C06FEFB9
:1017B0007FEFCB0134C060E070E0CB0130C061E06E
:1017C00070E080E090E02BC06FEF7FEFCB0127C08F
:1017D00060E070E0CB0123C06FEF7FEFCB011FC053
:1017E0006F85788989899A896115710581059105C7
:1017F00009F00ECF14C05301420152CF53014201F0
:101800004FCF812C912C540183946F8578898989DD
:101810009A89611571058105910509F041CFDF9124
:10182000CF911F910F91FF90EF90DF90CF90BF90DD
:10183000AF909F908F907F906F905F904F900895A2
:101840004F925F926F927F92AF92BF92CF92DF9250
:10185000EF92FF920F931F93CF93DF935C016A0186
:101860007B01B901A80122E0C216D104E104F10410
:1018700008F463C0FC01C081D1818B899C89AD894A
:10188000BE89C816D906EA06FB0608F058C04115FD
:1018900051056105710541F00FEF1FEF9801CE0171
:1018A0000E94C107811152C0B701A601C5010E9463
:1018B000F0082B013C01611571058105910509F4C2
:1018C00040C06130710581059105E9F16F3F7F4F9F
:1018D0008F4F9F4FD1F100E010E09801B701A601B2
:1018E000CE010E94C107811131C08F859889A989D5
:1018F000BA894B895C896D897E896A017B01E2E046
:10190000CE1AD108E108F1088C159D05AE05BF057A
:1019100050F40196A11DB11D8F87988BA98BBA8BAE
:101920008C8181608C8373016201441655066606C2
:10193000770608F4B9CF80E009C082E007C082E0F2
:1019400005C080E003C082E001C081E0DF91CF915B
:101950001F910F91FF90EF90DF90CF90BF90AF90CD
:101960007F906F905F904F9008954F925F926F922B
:101970007F92AF92BF92CF92DF92EF92FF920F933E
:101980001F93CF93DF938B01FC01C684D784E0883B
:10199000F188F0E2CF0ED11CE11CF11CC114D1047E
:1019A00020E2E206F10438F0FC01168A178A108E54
:1019B000118E84E0CAC0FC0146895789608D718D03
:1019C000411551056105710509F4B2C0EC01A08013
:1019D000B180D701C6019170AA27BB27892B8A2B1A
:1019E0008B2B09F096C04F5F5F4F6F4F7F4F468B39
:1019F000578B608F718F428953896489758941152E
:101A0000510561057105D9F4F50187819085A0E044
:101A1000B0E0B701A601689414F8769567955795DC
:101A200047951694D1F7481759076A077B0708F4BA
:101A300070C01E8A1F8A188E198E84E086C0F50138
:101A4000818592850197A0E0B0E026013701032E41
:101A500039E076946794579447943A95D1F7302DAE
:101A600084219521A621B721892B8A2B8B2B09F064
:101A700050C0CE010E94F0082B013C01623071057C
:101A80008105910508F456C06F3F7F4F8F4F9F4FE0
:101A900009F452C0F50183899489A589B68948164D
:101AA00059066A067B0640F1012B31F41E8A1F8A13
:101AB000188E198E84E049C04A895B896C897D89BA
:101AC000CE010E94BA0A2B013C0161157105810506
:101AD0009105A1F1613071058105910589F16F3F93
:101AE0002FEF72078207920769F1AB01BC01C501B4
:101AF0000E94E906811128C04A8A5B8A6C8A7D8A25
:101B0000B301A201C5010E94C6056E8B7F8B888F31
:101B1000998FCE86DF86E88AF98A8FE2A80EB11CFB
:101B2000E1E0DE22CA0CDB1CCA8EDB8E80E00DC039
:101B300084E00BC082E009C081E007C087E005C0F7
:101B400082E003C081E001C081E0DF91CF911F916D
:101B50000F91FF90EF90DF90CF90BF90AF907F906C
:101B60006F905F904F900895EF92FF920F931F93A5
:101B7000CF938C01DC01ED90FC9040E050E0BA0185
:101B80000E94CF09C82F81111DC0F80146895789CD
:101B9000608D718DC7010E94AB06C82F811112C0E4
:101BA000D8015A96ED91FC915B978081853E71F04A
:101BB000882361F061E070E0C8010E94B50CC82F75
:101BC000882319F3C43039F1C11126C0F8014689C0
:101BD0005789608D718DC7010E94AB06C82F811196
:101BE0001BC040E250E060E070E0D8015A968D9151
:101BF0009C915B970E94B005B801645E7F4F4BE0FB
:101C000050E0F801828D938D0E94A20581E0D701FA
:101C100013968C9301C0C7E08C2FCF911F910F9129
:101C2000FF90EF900895CF93DF93EC011B828FEF2D
:101C30009FEFDC018BA79CA7ADA7BEA7CE010E949A
:101C4000AB0681112BC0FE01E25DFD4F808190E06B
:101C5000982F882731972081822B85359A4A01F564
:101C60008FA58B3E19F0885E8230E0F443E050E0AF
:101C700062E670E2CE018B599F4F0E94B805892B16
:101C800099F045E050E066E670E2CE018F579F4F35
:101C90000E94B805892B51F082E009C084E007C09A
:101CA00083E005C082E003C080E001C080E0DF91F6
:101CB000CF9108952F923F924F925F926F927F92B1
:101CC0008F929F92AF92BF92CF92DF92EF92FF924C
:101CD0000F931F93CF93DF93CDB7DEB76E97CDBF32
:101CE000DEBF6B01B42EDB011D921C920E94EE053B
:101CF0007C0199230CF43DC2FC01EE0FFF1FE25260
:101D0000FF4D008111810115110509F434C2F6015E
:101D100000831183FB2DFE7FBF2ED8018C91882379
:101D200069F011968C910E94741E80FD07C0BB2043
:101D300009F423C282FF23C28AE0D4C2F8011082D0
:101D4000E1828E2D0E947B1E80FD1BC2BB2009F408
:101D50003EC282FD18C23BC2F701349780818823BE
:101D600021F0C7010E94870503C060E070E0CB014D
:101D7000D6016D937D938D939D936D01B0E1EB0E34
:101D8000F11CE814F90441F74E01E1E18E0E911CBB
:101D9000D501CD90DD90ED90FD905D01C114D10491
:101DA000E104F10441F0B701A601C8010E94130E3D
:101DB000823010F425C283E0A814B90449F703C0A7
:101DC000C12CD12C7601843009F4DFC1823008F0B7
:101DD000DEC1F80183AD90E0982F882722AD822BD9
:101DE0008115924009F0D5C1F801EA5BFF4F4080B0
:101DF000512C542C442431978081482A612C712C19
:101E0000411451046104710439F4C8018D5A9F4F83
:101E10000E9487052B013C01D80157964D925D9297
:101E20006D927C925A97DF96BC91B98BF801B28380
:101E30008B2F8150823008F0AEC134AD3E8F832F9E
:101E400090E081879287009709F4A7C19C012150F7
:101E5000310982239323892B09F0A1C1EF5BFF4F46
:101E6000808190E0982F8827319720811C01222AB9
:101E7000D80117962D923C921897C1018F7099271F
:101E8000892B09F08EC133968080912C982C882460
:101E900031978081882AA12CB12C81149104A1044E
:101EA000B10439F4C801815B9F4F0E9487054B0143
:101EB0005C01D801DE96EC91DE97F0E0FE2FEE2774
:101EC000DD968C91E82B309709F46DC12989A22FFA
:101ED000B0E0A30192010E948B236A8F7B8F8C8FCD
:101EE0009D8FCF01A0E0B0E08E8B9F8BA88FB98F24
:101EF000C101929582958F7089279F7089272E89BD
:101F00003F89488D598D280F391F411D511DDA0118
:101F1000C9012A8D3B8D4C8D5D8D280F391F4A1FBD
:101F20005B1F2A8B3B8B4C8B5D8B82169306A40622
:101F3000B50608F43AC1C501B401621B730B840BEA
:101F4000950BAE8D2A2F30E040E050E00E945223E6
:101F5000DA01C901211531054105510509F427C1EF
:101F6000263FEFEF3E074E07EFE05E0718F4F3E081
:101F7000F98B01C0198A863F6FEF9607A105B1055D
:101F800010F4E2E0E98B863F9F40A105B10508F41B
:101F90007BC16989662309F40CC149015A0182E0B9
:101FA000880E911CA11CB11CD80153968D929D9254
:101FB000AD92BC925697F801C38ED48EE58EF68E04
:101FC0008E899F89A88DB98D8C0D9D1DAE1DBF1D5D
:101FD000878F90A3A1A3B2A34A895B896C897D896D
:101FE0004C0D5D1D6E1D7F1D47A350A761A772A7F5
:101FF000F989F330D1F5F801E65AFF4F808190E07E
:10200000982F882731972081822B892B09F0D3C004
:10201000232809F0D2C0C801855A9F4F0E94870526
:10202000D80193966D937D938D939C939697880C8E
:10203000991CAA1CBB1C880C991CAA1CBB1CBFEFBA
:102040008B0EB1E09B1EA11CB11C072E79E0B6944B
:10205000A794979487947A95D1F7702D48145904D2
:102060006A047B0408F4ABC0F4C0232809F4A9C0B7
:102070002A8D3B8D4C8D5D8D820F931FA41FB51F44
:10208000F80183A394A3A5A3B6A3F989F23029F498
:10209000880C991CAA1CBB1CC6C0A3E0B0E0A5011B
:1020A00094010E948B23DC01CB01B695A7959795EF
:1020B000879521E082229924AA24BB24880E991EA8
:1020C000AA1EBB1EB0C0B701A6014F5F5F4F6F4F86
:1020D0007F4FC8010E94AB06811139C0D801149608
:1020E0001C92F801E25DFD4F808190E0982F8827D7
:1020F00031972081822B85359A4A49F5C8018F9600
:102100000E948705623572458146914401F5C801F8
:102110008D5E9D4F0E9487056237724781449146CC
:10212000B1F4C801895E9D4F0E948705D8011F96B2
:102130006D937D938D939C935297C801855E9D4FBF
:102140000E948705F8016387748785879687E989E8
:10215000D801EC938091DC209091DD200196809352
:10216000DC209093DD2015968D939C93169780E04C
:10217000B9C08BE0B7C08CE0B5C080E0B3C080E0F0
:10218000B1C083E0AFC08AE0ADC081E0ABC08DE0FC
:10219000A9C08DE0A7C08DE0A5C08DE0A3C08DE0F3
:1021A000A1C08DE09FC08DE09DC08DE09BC08DE003
:1021B00099C08DE097C08DE095C08DE093C08DE013
:1021C00091C08DE08FC081E08DC08DE08BC040E07C
:1021D00050E0BA01C8010E94130E823009F0F0CD20
:1021E0009E012F5F3F4F590178013BE0E31A3EEF1C
:1021F000F30A48014BEC841A4DEF940A6501ACCD0B
:10220000843009F0E6CDDFCF8FEF9FEFDC01F801DE
:102210008787908BA18BB28B83879487A587B6879E
:1022200080E8848394CFFFEF8F0EF1E09F1EA11C06
:10223000B11C072E79E0B694A794979487947A9569
:10224000D1F7702D481459046A047B0408F4BDCFFB
:10225000DBCF8FEF9FEFDC01F8018787908BA18B9D
:10226000B28B83879487A587B68780E88483E05AFA
:10227000FF4F808190E0982F882731972081822B13
:10228000019709F064CF1FCF49015A01F2E08F0E88
:10229000911CA11CB11CD80153968D929D92AD92B8
:1022A000BC925697F801C38ED48EE58EF68E8E8939
:1022B0009F89A88DB98D8C0D9D1DAE1DBF1D878F6B
:1022C00090A3A1A3B2A32A893B894C895D89C20E40
:1022D000D31EE41EF51EC7A2D0A6E1A6F2A6F1E029
:1022E000F98BC3CE6E96CDBFDEBFDF91CF911F912C
:1022F0000F91FF90EF90DF90CF90BF90AF909F90A5
:102300008F907F906F905F904F903F902F900895A7
:102310000F931F93DC01FB01938D692F70E0762FE3
:102320006627828D682B80E090E02C91233079F431
:10233000058910E0102F00272489022B20E030E0CF
:10234000980111270027602B712B822B932B1F9153
:102350000F9108955F926F927F928F929F92AF92AA
:10236000BF92CF92DF92EF92FF920F931F93CF9382
:10237000DF93EC0188809980E62FF72F7F01819110
:102380008F32E1F38C35D1F31E821F8218861986B5
:10239000F7018081803250F480E88FA340E050E064
:1023A000BA01CE010E94CF09782E25C18E01045EAC
:1023B0001F4F0F2EF5E05F2EF02D6401FFE2CF0ED0
:1023C000D11C4BE050E060E270E0C8010E94B00513
:1023D00040E050E080E090E068E070E001C0C901BA
:1023E0009C012F5F3F4FF701E80FF91FB081B13219
:1023F00008F452C0BF3211F0BC3561F4F701E20FAE
:10240000F31F02C02F5F3F4F81918F32D9F38C357C
:10241000C9F342C0BE3209F4DAC04617570708F0C4
:1024200094C0B13808F4B3C0B03A08F4D8C0E0E2C0
:10243000EB0FED3108F4D3C0AAC020E82A0F2D37E6
:1024400008F4AEC0AF3708F4ABC00F2EF6E07F2E15
:10245000F02DD1C0F801E40FF51FB083FA013196D9
:10246000E00FF11F4E5F5F4FA0839C01B8CF8191B9
:10247000882309F49DC090E0A816B906C1F70F2E75
:10248000F6E07F2EF02DB7C0B052F801E40FF51F33
:10249000B0834F5F5F4FA3CFE20EF31E452B09F4CD
:1024A00059C08C8D853E09F45C8EB13210F080E00D
:1024B00001C084E08FA3A880B98040E050E0BA0159
:1024C000CE010E94CF09782E81117CC04E895F8990
:1024D000688D798DC5010E94AB06782E811172C07E
:1024E000EA8DFB8D80818823C9F06384862D8F73EC
:1024F0008C83838583FD09C04BE050E0B801CF0198
:102500000E94B805892B09F459C060E070E0CE0143
:102510000E94B50C782E8823C9F254C08FA182FD89
:102520001EC00F2EF5E07F2EF02D65C064FE1BC08F
:102530006E857F8571706C0D7D1DC4010E948811B0
:102540006E837F83888799873CCF0F2EF6E07F2E9E
:10255000F02D51C00F2EF6E07F2EF02D4CC0689468
:10256000772472F848C00F2EF5E07F2EF02D43C07F
:102570000F2EF6E07F2EF02D3EC00F2EF6E07F2EC0
:10258000F02D39C00F2EF6E07F2EF02D34C0AB2E8B
:10259000B12C82E2A816B10459F3EDE6F0E267CF60
:1025A0009B01215031094217530708F453CFE5CF5F
:1025B0008FE98B0F8A3108F467CF67CF8FA182FF35
:1025C000B5CF19C08FA194E0791215C0A8CF6B3098
:1025D0007105C1F248E050E06BE070E000CF029678
:1025E000F701E20FF31FA081A03408F026CF0F2ED1
:1025F000F6E07F2EF02D872DDF91CF911F910F9167
:10260000FF90EF90DF90CF90BF90AF909F908F9012
:102610007F906F905F9008951F93CF93DF9300D0CA
:1026200000D0CDB7DEB78B839C836D837E83142F60
:1026300069837A83CE0101960E94EE05992324F1E5
:10264000FC01EE0FFF1FE252FF4D0190F081E02DE3
:10265000309709F01082EB81FC81309709F01082ED
:10266000880F991FFC01E252FF4D8B819C81808372
:102670009183112359F040E0BE016D5F7F4FCE0181
:1026800005960E945A0E03C08BE001C080E026969A
:10269000CDBFDEBFDF91CF911F9108952F923F9262
:1026A0004F925F926F927F928F929F92AF92BF9262
:1026B000CF92DF92EF92FF920F931F93CF93DF930E
:1026C000CDB7DEB7AC97CDBFDEBF6BA77CA70097B9
:1026D00009F438C1142F7C01842F8F73D82E482F12
:1026E000BE01675D7F4FCE018B960E945A0E81110D
:1026F00025C189A59AA589839A836BA57CA5CE015E
:1027000001960E94AA1181111FC188A588230CF08F
:1027100024C11EC1843009F049C1CE0101960E9436
:10272000B40D9D2D9860D92E882339F007C18D8175
:10273000817109F063C112FD63C1D3FE59C0AB8C36
:10274000BC8C69A47AA4B501C3010E9488111B0145
:102750002C01F5011686178681E2808B8CE4818B33
:10276000EB8DFC8D80E283876B8D7C8D20E030E0EB
:10277000A901C3010E94E308EB8DFC8D148E158E18
:10278000168E178EE9A5FAA581E083832114310402
:102790004104510451F183A494A4A5A4B6A400E07B
:1027A00010E09801B201A101CE0101960E94200C17
:1027B0008111C4C0B501A40189A59AA50E94AB06E8
:1027C000E9A5FAA5B201A1014150510961097109B8
:1027D0004387548765877687882339F0AFC011FF18
:1027E00002C080FD0FC113FF03C0FD2DF064DF2E7A
:1027F000E9A5FAA583A594A5A5A5B6A5F701848F9B
:10280000958FA68FB78F8B8D9C8D80A391A36B8C9A
:102810007C8CA9A4BAA4B301C5010E948811F70158
:102820006683778380879187C3014C960E948705D2
:10283000F7016287738784879587A082B182F5014B
:1028400085819681F70182839383D6861786108EC1
:10285000118E128E138E108A118A128A138A170112
:10286000F2E22F0E311C40E052E060E070E0C10166
:102870000E94B005D5FE97C0F7014284538464845A
:102880007584411451046104710409F48CC0408AB8
:10289000518A628A738AE9A5FAA581859285A0E0AA
:1028A000B0E04C015D01072E79E0880C991CAA1C50
:1028B000BB1C7A95D1F7702DF70146815781608551
:1028C000718584149504A604B70408F058C0C701A4
:1028D0000E94F008AB01BC01423051056105710551
:1028E00008F085C072C0C9A4DAA4C6010E94C6055A
:1028F000611571058105910509F451C093018201AB
:102900000F2EF9E03695279517950795FA95D1F78B
:10291000F02DA9019801260F371F481F591FF701F5
:10292000208F318F428F538F01E010E0B101F6010B
:1029300081810E944E1F811134C035C0F701108281
:10294000118264C089E062C0412F4C7159F0E2CE1F
:10295000412F4C7151F586E005C0812F8C7109F033
:10296000E6CE28C08111EACF52CF8FEF9FEFDC0176
:10297000F701848B958BA68BB78B81E0DFCFF701B6
:10298000448B558B668B778BD301C2019170AA273C
:10299000BB27892B8A2B8B2B09F0A5CF04C082E0A3
:1029A000CDCF81E0CBCF80E031C086E0FD2DF86057
:1029B000DF2ED8CF8D8184FD27C011CFF701448B46
:1029C000558B668B778B82E0B9CF4F3FFFEF5F0768
:1029D0006F077F0751F2F2CF481859086A087B0841
:1029E00084149504A604B70408F471CFC8CF4F3FF0
:1029F0008FEF58076807780779F7B7CF87E09ECF42
:102A000088E09CCF87E09ACF84E098CFAC96CDBF8A
:102A1000DEBFDF91CF911F910F91FF90EF90DF907C
:102A2000CF90BF90AF909F908F907F906F905F906E
:102A30004F903F902F9008952F923F924F925F9228
:102A40006F927F928F929F92AF92BF92CF92DF92BE
:102A5000EF92FF920F931F93CF93DF93CDB7DEB723
:102A60002A97CDBFDEBF7C014B016A015901F901F4
:102A7000108211828F83F886BE016F5F7F4F0E94A4
:102A80002406811192C1F701878581118EC1868547
:102A900081FF8AC180899189A289B389AC01BD0176
:102AA0004C0D5D1D611D711D481759076A077B0795
:102AB00018F46C01C094D094C114D10409F46EC10F
:102AC00097012E5D3F4F29873A87F70180899189C9
:102AD000A289B389AC01BD01517066277727452BC8
:102AE000462B472B09F015C1E981FA816184728474
:102AF000F1E06F1A7108AC01BD01032E39E0769543
:102B00006795579547953A95D1F7302D64227522F0
:102B10006114710409F049C0892B8A2B8B2B91F425
:102B2000F701668177818085918561157105810541
:102B30009105B9F440E050E0BA018F8198850E9478
:102B4000BA0A09C0F70144895589668977898F8156
:102B500098850E94BA0A611571058105910509F4ED
:102B60001DC1613071058105910521F482E0F701F5
:102B700087871BC16F3FFFEF7F078F079F0721F4F8
:102B800081E0F701878711C1F701648B758B868B14
:102B9000978B0681178120853185012B022B032B12
:102BA00021F46683778380879187F7018685882360
:102BB000BCF4208D318D428D538DE981FA8101E085
:102BC00010E069857A8581810E949E1F882321F00B
:102BD00081E0F7018787E9C0F70186858F778687CF
:102BE00029813A812D833E83F7014489558966897D
:102BF0007789C9010E94C605611571058105910596
:102C000021F482E0F7018787D0C01B012C01260C3C
:102C1000371C411C511C9601232F332726952B83EB
:102C20003C832115310509F447C0ED81FE81818582
:102C30009285260D371D8217930728F49C012619CB
:102C400037092B833C830B811C81A2019101B401C4
:102C5000ED81FE8181810E949E1F882321F081E009
:102C6000F7018787A2C0F701808D918DA28DB38D6A
:102C700082199309A409B5092B813C81A90160E05F
:102C800070E084179507A607B70780F4982F882768
:102C9000990FB401680F791F40E052E089859A8549
:102CA0000E94A205F70186858F7786876B807C80DE
:102CB000762C6624770C46C0F701808D918DA28D0D
:102CC000B38D281639064A065B06F1F04089518912
:102CD0006289738982859385A485B58548175907CC
:102CE0006A077B0788F401E010E0A2019101698581
:102CF0007A85ED81FE8181810E944E1F882321F01B
:102D000081E0F701878751C0F701208E318E428E16
:102D1000538EF70180899189917020E032E039016A
:102D2000681A790AC614D70408F43601A301B4015D
:102D300029853A85820F931F0E94A205F701868597
:102D400080688687C618D708F50180819181860D35
:102D5000971D80839183860C971CF7018089918948
:102D6000A289B389860D971DA11DB11D808B918B02
:102D7000A28BB38B428553856485758548175907A7
:102D80006A077B0710F4AC01BD01F7014287538746
:102D900064877587C114D10409F097CEF701868541
:102DA0008064868780E001C087E02A96CDBFDEBFC1
:102DB000DF91CF911F910F91FF90EF90DF90CF9017
:102DC000BF90AF909F908F907F906F905F904F904B
:102DD0003F902F900895BF92CF92DF92EF92FF9293
:102DE0000F931F93CF93DF931F921F92CDB7DEB740
:102DF0008C01B62E2AE0621303C06DE00E94EB1630
:102E0000F80182819381992384F1C480D5807C016B
:102E1000FFEFEF1AFF0AF801E80FF91FB6822CE363
:102E2000E216F104CCF09E012F5F3F4FA701B801DD
:102E30006A5F7F4FF801808191810E941C1581E0BB
:102E400090E029813A812E153F0511F480E090E051
:102E5000EE24FF24E81AF90AF801E282F382FFEF78
:102E6000CF1ADF0AF801C482D5820F900F90DF914C
:102E7000CF911F910F91FF90EF90DF90CF90BF9077
:102E800008950F931F93CF93DF931F921F92CDB797
:102E9000DEB7FC01428153815523C4F08C01BC0193
:102EA0006A5F7F4F9E012F5F3F4F808191810E941B
:102EB0001C1581110EC0F8012281338189819A810C
:102EC0002817390749F48481958108C08FEF9FEF57
:102ED00005C08FEF9FEF02C08FEF9FEF0F900F9015
:102EE000DF91CF911F910F910895EF92FF920F9371
:102EF0001F93CF93DF931F921F92CDB7DEB77C0154
:102F0000BE016F5F7F4F0E942406811157C0F701F9
:102F1000868586FF50C08823A4F4208D318D428D94
:102F2000538DE981FA8101E010E0B7016E5D7F4FBA
:102F300081810E949E1F811140C0F70186858F7795
:102F40008687F701448D558D668D778D89819A81AD
:102F50000E94AB06811132C0F70100A111A1F80156
:102F6000838580628387F70126813781408551857B
:102F7000B801808191810E94E308F70132852385A1
:102F800094858585F801348F258F968F878F168AD3
:102F9000178A81E2808F8CE4818F128A138A89815B
:102FA0009A8121E0FC0123830E944B07F70196855B
:102FB0009F7B968703C080E001C081E00F900F9057
:102FC000DF91CF911F910F91FF90EF9008950F9394
:102FD0001F93CF93DF931F921F92CDB7DEB78C0163
:102FE0000E94751781110BC0BE016F5F7F4FC80132
:102FF0000E942406811103C0F801108211820F90F3
:103000000F90DF91CF911F910F9108952F923F92D2
:103010004F925F926F927F928F929F92AF92BF92E8
:10302000CF92DF92EF92FF920F931F93CF93DF9394
:10303000CDB7DEB7C856D109CDBFDEBFC058DF4F10
:10304000C880D980C058D04046E450E060E070E0CD
:10305000CE0101960E94B005C258DF4F8881998148
:10306000CE57D04089839A839E012E573F4FA99611
:103070002EAF3FAFA997D6016C91662309F4BDC16D
:10308000653241F0BFEFCB1ADB0ACE0101960E94F8
:10309000EB16F1CFF6012181203341F42281A60104
:1030A0004D5F5F4F6A01332433940EC02D3229F0F7
:1030B00052E0C50ED11C312C07C02281F601339697
:1030C0006F016894332431F82A3239F080ED820F91
:1030D0008A30B0F000E010E02EC0A996AEADBFADD2
:1030E000A9970D911C911197F60120811296A9962E
:1030F000AEAFBFAFA997A6014F5F5F4F6A011BC07C
:1031000000E010E0C801880F991F000F111F000F89
:10311000111F000F111F080F191F020F111D00535F
:1031200011095FEFC51AD50AF6013197208180EDAC
:10313000820F8A3038F3822F8F7D8C3441F4832DB7
:103140008460382ED6012C91F60131966F0122232E
:1031500009F453C18FE9820F8A3118F430EE320F2F
:1031600001C0322F832F90E0FC01E254F109E731D6
:10317000F10508F06EC08827E250FF4F8F4F0C9486
:103180007423A996EEADFFADA997808091809F0131
:103190002E5F3F4FA9962EAF3FAFA997D4016C91F8
:1031A000662309F432C1F4013196412C512C01C03F
:1031B00027017201BFEFEB1AFB0A81918111F8CF51
:1031C00021C1E12CF12C44244394512C570160E29D
:1031D000CE0101960E94EB16EFEFAE1ABE0AA016C2
:1031E000B106A8F392012E193F097901E00EF11EF4
:1031F000D4016C91662361F0BFEF8B1A9B0ACE015C
:1032000001960E94EB16F40161914F016111F7CF15
:10321000E016F10608F02FCF60E2CE0101960E9481
:10322000EB16FFEFEF1AFF0AE016F106A8F323CF23
:10323000A996EEADFFADA99760819F012E5F3F4F2C
:10324000A9962EAF3FAFA997CE0101960E94EB162B
:1032500012CF622FCE0101960E94EB160CCF32FEE8
:1032600014C04AE001C040E1A996EEADFFADA997B8
:103270006081718182819381DF011496A996AEAF3E
:10328000BFAFA997343419F12EC04AE0343481F429
:10329000A996EEADFFADA997608171813296A9968E
:1032A000EEAFFFAFA997072E000C880B990B0FC04C
:1032B000A996EEADFFADA99760817181CF0102960D
:1032C000A9968EAF9FAFA99780E090E00CC099239C
:1032D00054F490958095709561957F4F8F4F9F4FD7
:1032E000A32DA8603A2E283711F427E201C027E069
:1032F000222E5E01B7E4AB0EB11C812C912C442E22
:10330000512C612C712C01C04701A30192010E9434
:103310005223F62FE62F622F732F842F952FFA302A
:1033200010F0E22DEF0F7401FFEFEF1AFF0AE05DDE
:10333000D501ED935D01611571058105910521F0C0
:10334000B0E2EB16F10401F733FE0CC0E7E4F0E065
:10335000EC0FFD1FEE0DFF1D2DE22083A4014E5F3B
:103360005F4F7A0130FC04C06894552455F804C0BE
:103370000F2EF0E35F2EF02D31FC18C047015FEFF8
:10338000851A950AE016F10690F45701652DCE01D5
:1033900001960E94EB168FEFA81AB80AA016B10684
:1033A000A8F348019FEF891A990A01C047010F2E1F
:1033B000F7E4AF2EB12CF02DAC0EBD1EAE0CBF1C31
:1033C000A1E0EA1AF108F50162915F01CE010196D0
:1033D0000E94EB16E114F10499F78016910608F0AB
:1033E0004ACE652DCE0101960E94EB16FFEF8F1A93
:1033F0009F0A80169106A8F33ECECE0101960E9448
:10340000411748C031FE0EC0F7CE31FE13C0E12C8B
:10341000F12CFECE32FC27CF40E14ACFD4016C9193
:103420007201EACEB2E04B0E511CE016F10608F430
:10343000CDCEF4CF0115110509F0C3CEEE24E394EF
:10344000F12CE6CEA996EEADFFADA9976081718112
:10345000828193813496A996EEAFFFAFA99742E09F
:1034600042CF32FCEFCF42E011CFA996EEADFFADD7
:10347000A9976081718182819381AF014C5F5F4F19
:10348000A9964EAF5FAFA99748E02DCF32FCEDCFA4
:1034900048E00ECFC859DF4FCDBFDEBFDF91CF91DF
:1034A0001F910F91FF90EF90DF90CF90BF90AF9062
:1034B0009F908F907F906F905F904F903F902F9054
:1034C00008952F923F924F925F926F927F928F92C8
:1034D0009F92AF92BF92CF92DF92EF92FF920F93A3
:1034E0001F93CF93DF9300D01F92CDB7DEB70E941A
:1034F000E3200E9417050E946D012FEF83E294EFF5
:10350000215080409040E1F700C000000E94C801B7
:10351000AFEFB3ED20E3A150B0402040E1F700C091
:1035200000000E94EF200E941B210E948204E0EA1A
:10353000F0E0828181608283789410923F43109200
:1035400040431092E5451092E4401092E5401092FD
:10355000E6401092E7401092194310921A431092DD
:103560001B4310921C43109242431092434310920B
:1035700044431092454310929B4510929C451092F3
:103580009D4510929E4510926B4510926C4510928D
:103590006D4510926E45109248431092224310924E
:1035A000E34010929A4510921D4310921E431092D0
:1035B0001F431092204310923B4310923C431092C1
:1035C0003D4310923E4380E090E0A0E0B6E4898362
:1035D0009A83AB83BC83552453940F2EFCE06F2E4B
:1035E000712CF02D0F2EF7E02F2E312CF02D0F2EF9
:1035F000F9E0CF2ED12CF02D0F2EF4E64F2EF02D2A
:1036000003E010E00F2EF6E0EF2EF12CF02D0F2E40
:10361000F5E0AF2EB12CF02D6894882482F8912C1F
:103620008091E227882321F01092E2270E94A704CC
:10363000E0913F43F0914043ED30F10508F0AEC119
:103640008827EB5EFE4F8F4F0C9474230E94170562
:103650000E9496019FEFA3ECB9E09150A040B040CA
:10366000E1F700C000000E9429028093E02066ED8F
:1036700081E00E94600261ED82E00E94600260EEE3
:1036800083E00E94600265E985E00E94600265E8CF
:1036900086E00E94600261E887E00E94600265E9BE
:1036A00088E00E94600261E889E00E94600265E1B2
:1036B0008AE00E94600265E98BE00E94600265E991
:1036C0008CE00E9460028FE190E20E945904009316
:1036D0003F4310934043A4CF8BE790E20E945E21CA
:1036E00060E884E00E9460026FEF8FE00E94600259
:1036F00062E087E10E94600282E090E080933F43B5
:10370000909340438DCF80E890E20E945E2160E07C
:1037100084E00E94600260E08FE00E94600260E04E
:1037200087E10E946002A2E0B0E0A0933F43B09323
:10373000404376CF85E890E20E945E2161E084E01C
:103740000E94600260E28FE00E94600262E087E116
:103750000E94600282E090E080933F439093404358
:103760005FCF8AE890E20E945E2160E084E00E94E0
:10377000600260E08FE00E94600260E087E10E94EA
:103780006002A2E0B0E0A0933F43B093404348CF33
:1037900041E062E470E288EE90E40E940C1388231A
:1037A00079F0382E8FE890E20E945E21832D90E020
:1037B000C9960E945E218CE890E20E945E21F7C0CB
:1037C00080923F43909240432BCF42E365E270E208
:1037D00089E493E40E944E13882329F083EA90E25F
:1037E0000E945E21E4C0A0923F43B092404380918A
:1037F000E545882309F414CF1092E54582E090E076
:1038000080933F43909340430BCF87EB90E20E941D
:103810005E210E9412020E94E401A2E0B0E0A093A7
:103820003F43B0934043512CFBCEE0923F43F09294
:1038300040430E941F04F4CEC0923F43D0924043C5
:103840002091394330913A438091374390913843E6
:103850002817390781F12091374330913843429E30
:10386000C001439E900D11248D51984D9F938F93CD
:1038700089E493E49F938F930E9406180F900F9012
:103880000F900F90019661F481E08093E54589E403
:1038900093E40E94E71700933F4310934043C0CE48
:1038A000809137439091384301968F739927809385
:1038B00037439093384320913B4330913C434091B0
:1038C0003D4350913E4369817A818B819C810E9466
:1038D000D82218160CF4A4CE20E030E040E056E4E4
:1038E00069817A818B819C810E946C2269837A83B1
:1038F0008B839C8389E493E40E94751791CE82E0C8
:1039000090E080933F4390934043809148438823C5
:1039100031F01092484320923F43309240438091CF
:103920002243882341F010922243A8E0B0E0A09304
:103930003F43B09340438091E340882341F010928D
:10394000E3408BE090E080933F439093404380912D
:103950009A45882309F464CE10929A4560923F43B9
:10396000709240435DCE0E94FB010E9433055110CE
:103970000AC00E94B10189E493E40E94E71781EC38
:1039800090E20E945E2110924143109217431092E0
:103990003F43109240435524539442CE10923F43EC
:1039A000109240438DEC90E20E945E2139CE249625
:1039B000CDBFDEBFDF91CF911F910F91FF90EF90B0
:1039C000DF90CF90BF90AF909F908F907F906F903F
:1039D0005F904F903F902F900895DC01680F791F02
:1039E000E0ECF8E09D91938392819923ECF7A61780
:1039F000B707C1F70895DC01680F791FE0ECF8E024
:103A00008FEF838392819923ECF793819D93A6177F
:103A1000B707B9F70895CF93DF931F92CDB7DEB7FD
:103A200080E18093450661E070E0CE0101960E943E
:103A3000FB1C0F90DF91CF9108959C01ADECBCEC85
:103A40000E947C2396958795969587959695879560
:103A5000009759F020E030E046E04A95F1F700C0C9
:103A60002F5F3F4F28173907B9F708950F931F931A
:103A7000CF93DF931F92CDB7DEB708E813E161E083
:103A800070E0CE0101960E94FB1C89818F3F39F0C6
:103A900084E690E00E941D1D0150110981F781E02C
:103AA00090E0012B11F480E090E00F90DF91CF9136
:103AB0001F910F9108950F931F93CF93DF931F9240
:103AC000CDB7DEB780E18093460661E070E0CE01BD
:103AD00001960E94FB1C0E94361D8C01892B19F453
:103AE0000E940B1D02C001E010E0C8010F90DF91A1
:103AF000CF911F910F910895DF92EF92FF920F9354
:103B00001F93CF93DF93CDB7DEB72797CDBFDEBF2F
:103B1000182F042FF52EE62ED72E882354F440E0DC
:103B200050E0BA0187E30E947C1D823008F057C044
:103B30001F771C3029F10E940B1D0E945B1D892BF1
:103B4000E9F0812F80648A83DB82EC82FD820E8320
:103B50001123E1F138C061E070E0CE0101960E94CE
:103B6000FB1C1AE061E070E0CE0101960E94FB1C94
:103B700089818823A4F51150A9F731C08FEF2FC098
:103B80008CE48A83DB82EC82FD820E8381E08F836A
:103B900066E070E0CE0102960E94ED1C1C3009F731
:103BA000DACF87E88F8366E070E0CE0102960E944C
:103BB000ED1CD7CF81E08F8366E070E0CE010296E6
:103BC0000E94ED1CCECF183061F3F4CF85E98F83CE
:103BD00066E070E0CE0102960E94ED1CC2CF2796EF
:103BE000CDBFDEBFDF91CF911F910F91FF90EF907E
:103BF000DF900895EF92FF921F93CF93DF931F9270
:103C00001F92CDB7DEB77C01162F0E94361D00979C
:103C100031F1198361E070E0CE0101960E94ED1C44
:103C20001D3FD9F060E072E0C7010E94ED1C62E028
:103C300070E0CE0101960E94FB1C61E070E0CE01B5
:103C400001960E94FB1C89818F7131E020E0853054
:103C500009F030E0832F922F02C081E090E00F90B6
:103C60000F90DF91CF911F91FF90EF900895CF9229
:103C7000DF92EF92FF920F931F93CF93DF931F92E8
:103C80001F92CDB7DEB77C016B0108EE13E061E057
:103C900070E0CE0101960E94FB1C89818F3F39F4B0
:103CA00084E690E00E941D1D0150110981F7898171
:103CB0008E3F69F4B601C7010E94FB1C62E070E010
:103CC000CE0101960E94FB1C81E090E002C080E0E2
:103CD00090E00F900F90DF91CF911F910F91FF9087
:103CE000EF90DF90CF900895811103C08091002064
:103CF000089581E00895EF92FF920F931F93CF9361
:103D0000DF9300D01F92CDB7DEB78111BCC080E138
:103D100097E20E941D1DE0E4F6E080E2868790E4D1
:103D20009283818380E8818380E1818398E1968B0F
:103D3000A0ECB8E090E59C9311961C9285831AE064
:103D400061E070E0CE0101960E94FB1C1150C1F7AA
:103D500040E050E0BA0180E00E947C1D813009F013
:103D600077C04AEA51E060E070E088E00E947C1D84
:103D70008130D1F564E070E0CE0101960E94FB1C19
:103D80008B81813009F066C08C818A3A09F064C069
:103D900008EE13E040E050E060E070E489EA0E9441
:103DA0007C1D882349F088EE93E00E941D1D015080
:103DB000110981F7F12C5CC0012B09F44FC040E0E0
:103DC00050E0BA018AE30E947C1D811149C064E081
:103DD00070E0CE0101960E94FB1C898186FD42C0E5
:103DE0006894FF24F2F844C040E050E0BA0189EA48
:103DF0000E947C1D823028F0EE24E394FF24F3948B
:103E000007C00F2EF9EAEF2EF02D6894FF24F1F889
:103E100008EE13E040E050E0BA018E2D0E947C1DB8
:103E2000882349F088EE93E00E941D1D015011097E
:103E300089F7F12C1DC0012BD1F040E052E060E089
:103E400070E080E10E947C1D882391F0F12C10C06D
:103E5000F12C0EC0F12C0CC0F12C0AC0F12C08C0C2
:103E6000F12C06C00F2EFCE0FF2EF02D01C0F12C2E
:103E7000F092E12011E0F11010E0109300200E9478
:103E80000B1D812F01C083E02496CDBFDEBFDF91E3
:103E9000CF911F910F91FF90EF900895FF920F9394
:103EA0001F93CF93DF93EB0181113FC080910020DE
:103EB00080FD3DC08091E12083FD09C0012E19E005
:103EC000220F331F441F551F1A95D1F7102D0230B2
:103ED000110528F40F2EF1E1FF2EF02D04C00F2E56
:103EE000F2E1FF2EF02DBA01A9018F2D0E947C1D59
:103EF000811114C060E072E0CE010E94371E892B50
:103F000021F0DE5F01501109A9F782E1F81206C025
:103F100040E050E0BA018CE00E947C1D0E940B1D25
:103F200081E0012B29F480E003C083E001C083E03D
:103F3000DF91CF911F910F91FF900895CF92DF9263
:103F4000EF92FF920F931F93CF93DF93EB016901E1
:103F50007A01811150C08091002080FD4EC0809177
:103F6000E12083FD09C00B2EB9E0CC0CDD1CEE1C5A
:103F7000FF1CBA95D1F7B02D0130110599F4B701A6
:103F8000A60188E10E947C1D81112EC06EEFCE013A
:103F90000E94FA1D31E020E0892B09F030E0032F68
:103FA000122F22C0867031F0A80160E070E087E92E
:103FB0000E947C1DB701A60189E10E947C1D811130
:103FC00013C06CEFCE010E94FA1D892B21F0DE5F39
:103FD00001501109B1F76DEF80E090E00E94FA1DE9
:103FE000892B11F401E010E00E940B1D81E0012BF0
:103FF00029F480E003C083E001C083E0DF91CF912A
:104000001F910F91FF90EF90DF90CF9008950F9345
:104010001F93CF93DF93CDB7DEB76097CDBFDEBFE1
:1040200081119CC08091002080FD9AC08A0161307E
:1040300069F020F0633009F47DC087C00E945B1DE9
:1040400011E0892B09F486C010E084C040E050E004
:10405000BA0189E00E947C1D811179C060E170E0A5
:10406000CE0101960E94371E892B09F472C0898106
:104070008295869586958370813031F5298530E06B
:10408000322F22278A85280F311D88858F7390E073
:10409000A0E0B0E0DC01992788270196A11DB11DA1
:1040A000820F931FA11DB11D072E7AE0880F991F63
:1040B000AA1FBB1F7A95D1F7702DF80180839183D9
:1040C000A283B38310E046C0898582958695869544
:1040D0008370288590E0F4E02F9F800D911D1124BE
:1040E0009C012F5F3F4F9F819370892F90E0982F05
:1040F0008827990F990F820F931FA0E0B0E02E81BF
:10410000322F3F702B85221F2227221F230F3A8533
:104110003370330F230F275004C0880F991FAA1F35
:10412000BB1F2A95D2F7F80180839183A283B383C2
:1041300010E010C080E890E0A0E0B0E0FA018083D9
:104140009183A283B38310E005C014E003C011E0A3
:1041500001C011E00E940B1D812F03C083E001C04C
:1041600083E06096CDBFDEBFDF91CF911F910F91AD
:1041700008950F93CF93DF931F92CDB7DEB72FB77C
:104180002983F8941BBEFC0108ED04BF608389817C
:104190008FBF0F90DF91CF910F9108950F931F93D1
:1041A000CF93C82F00E410E0F8016081687F682B8E
:1041B00080E490E00E94B920F80180818C23CF91A7
:1041C0001F910F910895E0E5F0E080818260808387
:1041D000818181FFFDCF81E00E94CE200895109261
:1041E000E1451092E24581E08093E44584E08093CC
:1041F000420688E08093450680934106E0EAF8E0B5
:1042000083E0858387ED868383E987838481846067
:10421000848380E18383848188618483109239431D
:1042200010923A43109237431092384310928345CC
:104230001092464308951092E1451092E24581E0C4
:104240008093E4458FE08093A206E0EBF6E0808166
:10425000877C8083E1EBF6E08081877C8083E2EBE2
:10426000F6E08081877C8083E3EBF6E08081877CC9
:10427000808384E08093820688E080938506809323
:104280008106E0EAFAE083E0858387E3868384EBB6
:10429000878384818460848380E1838384818861CF
:1042A00084831092DF451092E0451092844510926D
:1042B0008545109234431092E2270895CF93DF93FF
:1042C000DC01E0EAF8E0918195FFFDCFED018D91F1
:1042D000808388818111F7CFE0EAF8E0818185FF52
:1042E000FDCFDF91CF910895E0EAF8E0918195FF4D
:1042F000FDCF8093A0080895161617066CF4DC0114
:10430000680F791FE0EAFAE0918195FFFDCF9D915A
:104310009083A617B707C1F70895E0EAFAE0918104
:1043200095FFFDCF8093A00A08951F920F920FB6BC
:104330000F9211240BB60F922F933F938F939F935D
:10434000EF93FF938091E1459091E2458E31910585
:1043500049F481E08093E445E0EAFAE083818C7FD0
:1043600083830DC09C012F5F3F4F2093E145309325
:10437000E245FC01EF5FFF4D80818093A00AFF9131
:10438000EF919F918F913F912F910F900BBE0F90C6
:104390000FBE0F901F9018951F920F920FB60F929D
:1043A00011240BB60F922F933F938F939F93EF930C
:1043B000FF938091E1459091E2458E31910549F45A
:1043C00081E08093E445E0EAF8E083818C7F838399
:1043D0000DC09C012F5F3F4F2093E1453093E24594
:1043E000FC01EF5FFF4D80818093A008FF91EF916A
:1043F0009F918F913F912F910F900BBE0F900FBE09
:104400000F901F9018951F920F920FB60F921124C4
:104410000BB60F928F939F93EF93FF938091A00819
:104420008D3021F481E08093464310C0E0918345B4
:1044300091E09E0F90938345F0E0EA57FA4B80831A
:10444000E0918345F0E0EA57FA4B10828091834572
:10445000833111F410928345FF91EF919F918F91D9
:104460000F900BBE0F900FBE0F901F9018951F92CC
:104470000F920FB60F9211240BB60F928F939F934A
:10448000EF93FF938091A00A8D3021F481E0809317
:10449000E22710C0E091344391E09E0F90933443A3
:1044A000F0E0E159FA4B8083E0913443F0E0E159C8
:1044B000FA4B108280913443833111F410923443CB
:1044C000FF91EF919F918F910F900BBE0F900FBEB8
:1044D0000F901F9018955058BB27AA270E9483223F
:1044E0000C9418230E940A2338F00E94112320F014
:1044F00039F49F3F19F426F40C9407230EF4E09549
:10450000E7FB0C940123E92F0E94292358F3BA17E3
:10451000620773078407950720F079F4A6F50C94D9
:104520004B230EF4E0950B2EBA2FA02D0B01B901F1
:1045300090010C01CA01A0011124FF27591B99F019
:10454000593F50F4503E68F11A16F040A22F232F25
:10455000342F4427585FF3CF469537952795A79575
:10456000F0405395C9F77EF41F16BA0B620B730B1C
:10457000840BBAF09150A1F0FF0FBB1F661F771F8D
:10458000881FC2F70EC0BA0F621F731F841F48F442
:10459000879577956795B795F7959E3F08F0B0CFCB
:1045A0009395880F08F09927EE0F979587950895B2
:1045B0000E94DD2208F481E00895990F0008550F4C
:1045C000AA0BE0E8FEEF16161706E807F907C0F099
:1045D00012161306E407F50798F0621B730B840BA1
:1045E000950B39F40A2661F0232B242B252B21F47B
:1045F00008950A2609F4A140A6958FEF811D811D1B
:10460000089597F99F6780E870E060E008959FEF54
:1046100080EC089500240A94161617061806090659
:10462000089500240A941216130614060506089528
:10463000092E0394000C11F4882352F0BB0F40F4B0
:10464000BF2B11F460FF04C06F5F7F4F8F4F9F4FF0
:10465000089557FD9058440F551F59F05F3F71F072
:104660004795880F97FB991F61F09F3F79F08795D9
:104670000895121613061406551FF2CF4695F1DF62
:1046800008C0161617061806991FF1CF86957105F2
:10469000610508940895E894BB2766277727CB0126
:1046A00097F90895A1E21A2EAA1BBB1BFD010DC0AC
:1046B000AA1FBB1FEE1FFF1FA217B307E407F507D2
:1046C00020F0A21BB30BE40BF50B661F771F881FAE
:1046D000991F1A9469F760957095809590959B0144
:1046E000AC01BD01CF010895EE0FFF1F881F8BBFE6
:1046F0000790F691E02D1994A29FB001B39FC001DD
:10470000A39F700D811D1124911DB29F700D811DFD
:104710001124911D08950E947C23A59F900DB49FA4
:10472000900DA49F800D911D11240895FC0181918D
:10473000861721F08823D9F7992708953197CF015B
:104740000895BB272A3051F4992342F4BDE2909595
:104750008095709561957F4F8F4F9F4F0C94B1233B
:10476000BB27FA01A62F6217710581059105330B4E
:1047700030FB66F0AA27660F771F881F991FAA1FB4
:10478000A21710F0A21B63953850A9F7A05DAA33B9
:1047900008F0A95DA19336F7B111B1931082CA0157
:1047A0000C94D223DC01FC01672F71917723E1F790
:1047B000329704C07C916D9370836291AE17BF07EE
:0847C000C8F30895F894FFCF3F
:1047C800016162626263626262626462626262651D
:1047D8006262626266626262626762626262610A01
:1047E80020200A000064656D6F2E747874005344AD
:1047F800206361726420496E697469616C697A65C5
:10480800640A0041542B49444C453A0041542B4317
:10481800524D3A00636F6D6D616E64204552524F80
:10482800520046415400464154333200222A2B2C70
:104838003A3B3C3D3E3F5B5D7C7F006C730A0D005C
:104848006C640A0D0069730A0D0069640A0D00643E
:104858006576696365206E6F7420666F756E642077
:104868002D200063616E2774206372656174652072
:1048780066696C650A0D004352206D6F64650A0D08
:104888000049444C45206D6F64650A0D00646566F7
:0C48980061756C74206D6F64650A0D0082
:00000001FF
